{
  "_format": "hh-sol-artifact-1",
  "contractName": "Bridge",
  "sourceName": "contracts/Bridge.sol",
  "abi": [
    {
      "anonymous": false,
      "inputs": [
        {
          "indexed": true,
          "internalType": "address",
          "name": "getter",
          "type": "address"
        },
        {
          "indexed": true,
          "internalType": "uint256",
          "name": "value",
          "type": "uint256"
        },
        {
          "indexed": false,
          "internalType": "uint256",
          "name": "timestamp",
          "type": "uint256"
        },
        {
          "indexed": true,
          "internalType": "uint256",
          "name": "chainId",
          "type": "uint256"
        }
      ],
      "name": "ValueRetrieved",
      "type": "event"
    },
    {
      "anonymous": false,
      "inputs": [
        {
          "indexed": true,
          "internalType": "address",
          "name": "setter",
          "type": "address"
        },
        {
          "indexed": true,
          "internalType": "uint256",
          "name": "newValue",
          "type": "uint256"
        },
        {
          "indexed": false,
          "internalType": "uint256",
          "name": "timestamp",
          "type": "uint256"
        },
        {
          "indexed": true,
          "internalType": "uint256",
          "name": "chainId",
          "type": "uint256"
        }
      ],
      "name": "ValueUpdated",
      "type": "event"
    },
    {
      "inputs": [],
      "name": "getValue",
      "outputs": [
        {
          "internalType": "uint256",
          "name": "",
          "type": "uint256"
        }
      ],
      "stateMutability": "nonpayable",
      "type": "function"
    },
    {
      "inputs": [
        {
          "internalType": "uint256",
          "name": "_newValue",
          "type": "uint256"
        }
      ],
      "name": "setValue",
      "outputs": [],
      "stateMutability": "nonpayable",
      "type": "function"
    }
  ],
  "bytecode": "0x608060405234801561001057600080fd5b506101f3806100206000396000f3fe608060405234801561001057600080fd5b50600436106100365760003560e01c8063209652551461003b5780635524107714610059575b600080fd5b610043610075565b6040516100509190610144565b60405180910390f35b610073600480360381019061006e9190610190565b6100d1565b005b6000466000543373ffffffffffffffffffffffffffffffffffffffff167f70d9b4f0224b406720b338dc4f11efc60e98e116d0a5a77754eb29d4d141b131426040516100c19190610144565b60405180910390a4600054905090565b8060008190555046813373ffffffffffffffffffffffffffffffffffffffff167f4b439c7192a2599ef1a60223b483414de3d9ee15caa9f5e2ce83ba9d8e0bcc68426040516101209190610144565b60405180910390a450565b6000819050919050565b61013e8161012b565b82525050565b60006020820190506101596000830184610135565b92915050565b600080fd5b61016d8161012b565b811461017857600080fd5b50565b60008135905061018a81610164565b92915050565b6000602082840312156101a6576101a561015f565b5b60006101b48482850161017b565b9150509291505056fea2646970667358221220e51dc8d22bd77ad37aa099ee595a1ff237f5588c6f5a84060787a8da42e685f164736f6c63430008140033",
  "linkReferences": {},
  "deployedLinkReferences": {}
}