{
  "_format": "hh-sol-artifact-1",
  "contractName": "Manager",
  "sourceName": "contracts/Manager.sol",
  "abi": [
    {
      "inputs": [],
      "stateMutability": "nonpayable",
      "type": "constructor"
    },
    {
      "anonymous": false,
      "inputs": [
        {
          "indexed": true,
          "internalType": "address",
          "name": "creator",
          "type": "address"
        },
        {
          "indexed": true,
          "internalType": "address",
          "name": "tokenAddress",
          "type": "address"
        }
      ],
      "name": "TokenCreated",
      "type": "event"
    },
    {
      "anonymous": false,
      "inputs": [
        {
          "indexed": true,
          "internalType": "address",
          "name": "tokenAddress",
          "type": "address"
        },
        {
          "indexed": true,
          "internalType": "address",
          "name": "to",
          "type": "address"
        },
        {
          "indexed": false,
          "internalType": "uint256",
          "name": "amount",
          "type": "uint256"
        }
      ],
      "name": "TokensTransferred",
      "type": "event"
    },
    {
      "inputs": [],
      "name": "auth",
      "outputs": [
        {
          "internalType": "contract Auth",
          "name": "",
          "type": "address"
        }
      ],
      "stateMutability": "view",
      "type": "function"
    },
    {
      "inputs": [
        {
          "internalType": "address",
          "name": "user",
          "type": "address"
        }
      ],
      "name": "claimInfo",
      "outputs": [
        {
          "internalType": "address",
          "name": "user",
          "type": "address"
        },
        {
          "internalType": "address",
          "name": "tokenAddress",
          "type": "address"
        },
        {
          "internalType": "string",
          "name": "cid",
          "type": "string"
        }
      ],
      "stateMutability": "view",
      "type": "function"
    },
    {
      "inputs": [
        {
          "internalType": "string",
          "name": "name",
          "type": "string"
        },
        {
          "internalType": "string",
          "name": "symbol",
          "type": "string"
        }
      ],
      "name": "createToken",
      "outputs": [
        {
          "internalType": "address",
          "name": "",
          "type": "address"
        }
      ],
      "stateMutability": "nonpayable",
      "type": "function"
    },
    {
      "inputs": [],
      "name": "getTokens",
      "outputs": [],
      "stateMutability": "nonpayable",
      "type": "function"
    },
    {
      "inputs": [],
      "name": "owner",
      "outputs": [
        {
          "internalType": "address",
          "name": "",
          "type": "address"
        }
      ],
      "stateMutability": "view",
      "type": "function"
    },
    {
      "inputs": [
        {
          "internalType": "uint256",
          "name": "",
          "type": "uint256"
        }
      ],
      "name": "tokenPool",
      "outputs": [
        {
          "internalType": "address",
          "name": "",
          "type": "address"
        }
      ],
      "stateMutability": "view",
      "type": "function"
    },
    {
      "inputs": [
        {
          "internalType": "address",
          "name": "tokenAddress",
          "type": "address"
        },
        {
          "internalType": "address",
          "name": "to",
          "type": "address"
        },
        {
          "internalType": "uint256",
          "name": "amount",
          "type": "uint256"
        }
      ],
      "name": "transferTokens",
      "outputs": [],
      "stateMutability": "nonpayable",
      "type": "function"
    },
    {
      "inputs": [
        {
          "internalType": "string",
          "name": "_cid",
          "type": "string"
        },
        {
          "internalType": "address",
          "name": "_tokenAddress",
          "type": "address"
        }
      ],
      "name": "uploadImage",
      "outputs": [],
      "stateMutability": "nonpayable",
      "type": "function"
    }
  ],
  "bytecode": "0x60c060405234801561001057600080fd5b503373ffffffffffffffffffffffffffffffffffffffff1660a08173ffffffffffffffffffffffffffffffffffffffff1681525050604051610051906100a6565b604051809103906000f08015801561006d573d6000803e3d6000fd5b5073ffffffffffffffffffffffffffffffffffffffff1660808173ffffffffffffffffffffffffffffffffffffffff16815250506100b3565b6105ce80612b6e83390190565b60805160a051612a886100e6600039600081816101d1015261057d01526000818161036e01526109790152612a886000f3fe60806040523480156200001157600080fd5b5060043610620000945760003560e01c8063aa6ca8081162000063578063aa6ca8081462000131578063c40c11bb146200013d578063d97830b11462000173578063de9375f214620001ab5762000094565b80632f2f2d561462000099578063457f4cd914620000cf5780638da5cb5b14620000ef578063a64b6e5f1462000111575b600080fd5b620000b76004803603810190620000b1919062000b1f565b620001cd565b604051620000c6919062000be9565b60405180910390f35b620000ed6004803603810190620000e7919062000c37565b62000368565b005b620000f96200057b565b60405162000108919062000be9565b60405180910390f35b6200012f600480360381019062000129919062000cd8565b6200059f565b005b6200013b62000695565b005b6200015b600480360381019062000155919062000d34565b6200083d565b6040516200016a919062000be9565b60405180910390f35b6200019160048036038101906200018b919062000d66565b6200087d565b604051620001a29392919062000e21565b60405180910390f35b620001b562000977565b604051620001c4919062000ed0565b60405180910390f35b60007f000000000000000000000000000000000000000000000000000000000000000073ffffffffffffffffffffffffffffffffffffffff163373ffffffffffffffffffffffffffffffffffffffff161462000260576040517f08c379a0000000000000000000000000000000000000000000000000000000008152600401620002579062000f3d565b60405180910390fd5b600083833060405162000273906200099b565b620002819392919062000f5f565b604051809103906000f0801580156200029e573d6000803e3d6000fd5b5090506001819080600181540180825580915050600190039060005260206000200160009091909190916101000a81548173ffffffffffffffffffffffffffffffffffffffff021916908373ffffffffffffffffffffffffffffffffffffffff1602179055508073ffffffffffffffffffffffffffffffffffffffff163373ffffffffffffffffffffffffffffffffffffffff167fd5f9bdf12adf29dab0248c349842c3822d53ae2bb4f36352f301630d018c813960405160405180910390a38091505092915050565b600115157f000000000000000000000000000000000000000000000000000000000000000073ffffffffffffffffffffffffffffffffffffffff166361be861b6040518163ffffffff1660e01b8152600401602060405180830381865afa158015620003d8573d6000803e3d6000fd5b505050506040513d601f19601f82011682018060405250810190620003fe919062000fe7565b15151462000443576040517f08c379a00000000000000000000000000000000000000000000000000000000081526004016200043a906200108f565b60405180910390fd5b600060405180606001604052803373ffffffffffffffffffffffffffffffffffffffff1681526020018373ffffffffffffffffffffffffffffffffffffffff168152602001848152509050806000803373ffffffffffffffffffffffffffffffffffffffff1673ffffffffffffffffffffffffffffffffffffffff16815260200190815260200160002060008201518160000160006101000a81548173ffffffffffffffffffffffffffffffffffffffff021916908373ffffffffffffffffffffffffffffffffffffffff16021790555060208201518160010160006101000a81548173ffffffffffffffffffffffffffffffffffffffff021916908373ffffffffffffffffffffffffffffffffffffffff1602179055506040820151816002019081620005729190620012dd565b50905050505050565b7f000000000000000000000000000000000000000000000000000000000000000081565b60008390508073ffffffffffffffffffffffffffffffffffffffff1663a9059cbb84846040518363ffffffff1660e01b8152600401620005e1929190620013d5565b6020604051808303816000875af115801562000601573d6000803e3d6000fd5b505050506040513d601f19601f8201168201806040525081019062000627919062000fe7565b508273ffffffffffffffffffffffffffffffffffffffff168473ffffffffffffffffffffffffffffffffffffffff167f1b89874203ff7f0bba87c969ada3f32fda22ed38a6706d35199d21280c7811b18460405162000687919062001402565b60405180910390a350505050565b60008060003373ffffffffffffffffffffffffffffffffffffffff1673ffffffffffffffffffffffffffffffffffffffff1681526020019081526020016000206040518060600160405290816000820160009054906101000a900473ffffffffffffffffffffffffffffffffffffffff1673ffffffffffffffffffffffffffffffffffffffff1673ffffffffffffffffffffffffffffffffffffffff1681526020016001820160009054906101000a900473ffffffffffffffffffffffffffffffffffffffff1673ffffffffffffffffffffffffffffffffffffffff1673ffffffffffffffffffffffffffffffffffffffff1681526020016002820180546200079e90620010e0565b80601f0160208091040260200160405190810160405280929190818152602001828054620007cc90620010e0565b80156200081d5780601f10620007f1576101008083540402835291602001916200081d565b820191906000526020600020905b815481529060010190602001808311620007ff57829003601f168201915b50505050508152505090506200083a816020015133600a6200059f565b50565b600181815481106200084e57600080fd5b906000526020600020016000915054906101000a900473ffffffffffffffffffffffffffffffffffffffff1681565b60006020528060005260406000206000915090508060000160009054906101000a900473ffffffffffffffffffffffffffffffffffffffff16908060010160009054906101000a900473ffffffffffffffffffffffffffffffffffffffff1690806002018054620008ee90620010e0565b80601f01602080910402602001604051908101604052809291908181526020018280546200091c90620010e0565b80156200096d5780601f1062000941576101008083540402835291602001916200096d565b820191906000526020600020905b8154815290600101906020018083116200094f57829003601f168201915b5050505050905083565b7f000000000000000000000000000000000000000000000000000000000000000081565b611633806200142083390190565b6000604051905090565b600080fd5b600080fd5b600080fd5b600080fd5b6000601f19601f8301169050919050565b7f4e487b7100000000000000000000000000000000000000000000000000000000600052604160045260246000fd5b62000a1282620009c7565b810181811067ffffffffffffffff8211171562000a345762000a33620009d8565b5b80604052505050565b600062000a49620009a9565b905062000a57828262000a07565b919050565b600067ffffffffffffffff82111562000a7a5762000a79620009d8565b5b62000a8582620009c7565b9050602081019050919050565b82818337600083830152505050565b600062000ab862000ab28462000a5c565b62000a3d565b90508281526020810184848401111562000ad75762000ad6620009c2565b5b62000ae484828562000a92565b509392505050565b600082601f83011262000b045762000b03620009bd565b5b813562000b1684826020860162000aa1565b91505092915050565b6000806040838503121562000b395762000b38620009b3565b5b600083013567ffffffffffffffff81111562000b5a5762000b59620009b8565b5b62000b688582860162000aec565b925050602083013567ffffffffffffffff81111562000b8c5762000b8b620009b8565b5b62000b9a8582860162000aec565b9150509250929050565b600073ffffffffffffffffffffffffffffffffffffffff82169050919050565b600062000bd18262000ba4565b9050919050565b62000be38162000bc4565b82525050565b600060208201905062000c00600083018462000bd8565b92915050565b62000c118162000bc4565b811462000c1d57600080fd5b50565b60008135905062000c318162000c06565b92915050565b6000806040838503121562000c515762000c50620009b3565b5b600083013567ffffffffffffffff81111562000c725762000c71620009b8565b5b62000c808582860162000aec565b925050602062000c938582860162000c20565b9150509250929050565b6000819050919050565b62000cb28162000c9d565b811462000cbe57600080fd5b50565b60008135905062000cd28162000ca7565b92915050565b60008060006060848603121562000cf45762000cf3620009b3565b5b600062000d048682870162000c20565b935050602062000d178682870162000c20565b925050604062000d2a8682870162000cc1565b9150509250925092565b60006020828403121562000d4d5762000d4c620009b3565b5b600062000d5d8482850162000cc1565b91505092915050565b60006020828403121562000d7f5762000d7e620009b3565b5b600062000d8f8482850162000c20565b91505092915050565b600081519050919050565b600082825260208201905092915050565b60005b8381101562000dd457808201518184015260208101905062000db7565b60008484015250505050565b600062000ded8262000d98565b62000df9818562000da3565b935062000e0b81856020860162000db4565b62000e1681620009c7565b840191505092915050565b600060608201905062000e38600083018662000bd8565b62000e47602083018562000bd8565b818103604083015262000e5b818462000de0565b9050949350505050565b6000819050919050565b600062000e9062000e8a62000e848462000ba4565b62000e65565b62000ba4565b9050919050565b600062000ea48262000e6f565b9050919050565b600062000eb88262000e97565b9050919050565b62000eca8162000eab565b82525050565b600060208201905062000ee7600083018462000ebf565b92915050565b7f556e617574686f72697a65640000000000000000000000000000000000000000600082015250565b600062000f25600c8362000da3565b915062000f328262000eed565b602082019050919050565b6000602082019050818103600083015262000f588162000f16565b9050919050565b6000606082019050818103600083015262000f7b818662000de0565b9050818103602083015262000f91818562000de0565b905062000fa2604083018462000bd8565b949350505050565b60008115159050919050565b62000fc18162000faa565b811462000fcd57600080fd5b50565b60008151905062000fe18162000fb6565b92915050565b600060208284031215620010005762000fff620009b3565b5b6000620010108482850162000fd0565b91505092915050565b7f55736572206e6f74206c6f6767656420696e206f72207265676973746572656460008201527f2e00000000000000000000000000000000000000000000000000000000000000602082015250565b60006200107760218362000da3565b9150620010848262001019565b604082019050919050565b60006020820190508181036000830152620010aa8162001068565b9050919050565b7f4e487b7100000000000000000000000000000000000000000000000000000000600052602260045260246000fd5b60006002820490506001821680620010f957607f821691505b6020821081036200110f576200110e620010b1565b5b50919050565b60008190508160005260206000209050919050565b60006020601f8301049050919050565b600082821b905092915050565b600060088302620011797fffffffffffffffffffffffffffffffffffffffffffffffffffffffffffffffff826200113a565b6200118586836200113a565b95508019841693508086168417925050509392505050565b6000620011be620011b8620011b28462000c9d565b62000e65565b62000c9d565b9050919050565b6000819050919050565b620011da836200119d565b620011f2620011e982620011c5565b84845462001147565b825550505050565b600090565b62001209620011fa565b62001216818484620011cf565b505050565b5b818110156200123e5762001232600082620011ff565b6001810190506200121c565b5050565b601f8211156200128d57620012578162001115565b62001262846200112a565b8101602085101562001272578190505b6200128a62001281856200112a565b8301826200121b565b50505b505050565b600082821c905092915050565b6000620012b26000198460080262001292565b1980831691505092915050565b6000620012cd83836200129f565b9150826002028217905092915050565b620012e88262000d98565b67ffffffffffffffff811115620013045762001303620009d8565b5b620013108254620010e0565b6200131d82828562001242565b600060209050601f83116001811462001355576000841562001340578287015190505b6200134c8582620012bf565b865550620013bc565b601f198416620013658662001115565b60005b828110156200138f5784890151825560018201915060208501945060208101905062001368565b86831015620013af5784890151620013ab601f8916826200129f565b8355505b6001600288020188555050505b505050505050565b620013cf8162000c9d565b82525050565b6000604082019050620013ec600083018562000bd8565b620013fb6020830184620013c4565b9392505050565b6000602082019050620014196000830184620013c4565b9291505056fe60806040526012600260006101000a81548160ff021916908360ff1602179055506103e86003553480156200003357600080fd5b5060405162001633380380620016338339818101604052810190620000599190620002c4565b82600090816200006a9190620005a9565b5081600190816200007c9190620005a9565b50600354600460008373ffffffffffffffffffffffffffffffffffffffff1673ffffffffffffffffffffffffffffffffffffffff1681526020019081526020016000208190555050505062000690565b6000604051905090565b600080fd5b600080fd5b600080fd5b600080fd5b6000601f19601f8301169050919050565b7f4e487b7100000000000000000000000000000000000000000000000000000000600052604160045260246000fd5b6200013582620000ea565b810181811067ffffffffffffffff82111715620001575762000156620000fb565b5b80604052505050565b60006200016c620000cc565b90506200017a82826200012a565b919050565b600067ffffffffffffffff8211156200019d576200019c620000fb565b5b620001a882620000ea565b9050602081019050919050565b60005b83811015620001d5578082015181840152602081019050620001b8565b60008484015250505050565b6000620001f8620001f2846200017f565b62000160565b905082815260208101848484011115620002175762000216620000e5565b5b62000224848285620001b5565b509392505050565b600082601f830112620002445762000243620000e0565b5b815162000256848260208601620001e1565b91505092915050565b600073ffffffffffffffffffffffffffffffffffffffff82169050919050565b60006200028c826200025f565b9050919050565b6200029e816200027f565b8114620002aa57600080fd5b50565b600081519050620002be8162000293565b92915050565b600080600060608486031215620002e057620002df620000d6565b5b600084015167ffffffffffffffff811115620003015762000300620000db565b5b6200030f868287016200022c565b935050602084015167ffffffffffffffff811115620003335762000332620000db565b5b62000341868287016200022c565b92505060406200035486828701620002ad565b9150509250925092565b600081519050919050565b7f4e487b7100000000000000000000000000000000000000000000000000000000600052602260045260246000fd5b60006002820490506001821680620003b157607f821691505b602082108103620003c757620003c662000369565b5b50919050565b60008190508160005260206000209050919050565b60006020601f8301049050919050565b600082821b905092915050565b600060088302620004317fffffffffffffffffffffffffffffffffffffffffffffffffffffffffffffffff82620003f2565b6200043d8683620003f2565b95508019841693508086168417925050509392505050565b6000819050919050565b6000819050919050565b60006200048a620004846200047e8462000455565b6200045f565b62000455565b9050919050565b6000819050919050565b620004a68362000469565b620004be620004b58262000491565b848454620003ff565b825550505050565b600090565b620004d5620004c6565b620004e28184846200049b565b505050565b5b818110156200050a57620004fe600082620004cb565b600181019050620004e8565b5050565b601f82111562000559576200052381620003cd565b6200052e84620003e2565b810160208510156200053e578190505b620005566200054d85620003e2565b830182620004e7565b50505b505050565b600082821c905092915050565b60006200057e600019846008026200055e565b1980831691505092915050565b60006200059983836200056b565b9150826002028217905092915050565b620005b4826200035e565b67ffffffffffffffff811115620005d057620005cf620000fb565b5b620005dc825462000398565b620005e98282856200050e565b600060209050601f8311600181146200062157600084156200060c578287015190505b6200061885826200058b565b86555062000688565b601f1984166200063186620003cd565b60005b828110156200065b5784890151825560018201915060208501945060208101905062000634565b868310156200067b578489015162000677601f8916826200056b565b8355505b6001600288020188555050505b505050505050565b610f9380620006a06000396000f3fe608060405234801561001057600080fd5b50600436106100935760003560e01c8063313ce56711610066578063313ce5671461013457806370a082311461015257806395d89b4114610182578063a9059cbb146101a0578063dd62ed3e146101d057610093565b806306fdde0314610098578063095ea7b3146100b657806318160ddd146100e657806323b872dd14610104575b600080fd5b6100a0610200565b6040516100ad9190610ad0565b60405180910390f35b6100d060048036038101906100cb9190610b8b565b61028e565b6040516100dd9190610be6565b60405180910390f35b6100ee610380565b6040516100fb9190610c10565b60405180910390f35b61011e60048036038101906101199190610c2b565b610386565b60405161012b9190610be6565b60405180910390f35b61013c610755565b6040516101499190610c9a565b60405180910390f35b61016c60048036038101906101679190610cb5565b610768565b6040516101799190610c10565b60405180910390f35b61018a610780565b6040516101979190610ad0565b60405180910390f35b6101ba60048036038101906101b59190610b8b565b61080e565b6040516101c79190610be6565b60405180910390f35b6101ea60048036038101906101e59190610ce2565b610a1b565b6040516101f79190610c10565b60405180910390f35b6000805461020d90610d51565b80601f016020809104026020016040519081016040528092919081815260200182805461023990610d51565b80156102865780601f1061025b57610100808354040283529160200191610286565b820191906000526020600020905b81548152906001019060200180831161026957829003601f168201915b505050505081565b600081600560003373ffffffffffffffffffffffffffffffffffffffff1673ffffffffffffffffffffffffffffffffffffffff16815260200190815260200160002060008573ffffffffffffffffffffffffffffffffffffffff1673ffffffffffffffffffffffffffffffffffffffff168152602001908152602001600020819055508273ffffffffffffffffffffffffffffffffffffffff163373ffffffffffffffffffffffffffffffffffffffff167f8c5be1e5ebec7d5bd14f71427d1e84f3dd0314c0f7b2291e5b200ac8c7c3b9258460405161036e9190610c10565b60405180910390a36001905092915050565b60035481565b60008073ffffffffffffffffffffffffffffffffffffffff168473ffffffffffffffffffffffffffffffffffffffff16036103f6576040517f08c379a00000000000000000000000000000000000000000000000000000000081526004016103ed90610dce565b60405180910390fd5b600073ffffffffffffffffffffffffffffffffffffffff168373ffffffffffffffffffffffffffffffffffffffff1603610465576040517f08c379a000000000000000000000000000000000000000000000000000000000815260040161045c90610dce565b60405180910390fd5b81600460008673ffffffffffffffffffffffffffffffffffffffff1673ffffffffffffffffffffffffffffffffffffffff1681526020019081526020016000205410156104e7576040517f08c379a00000000000000000000000000000000000000000000000000000000081526004016104de90610e3a565b60405180910390fd5b81600560008673ffffffffffffffffffffffffffffffffffffffff1673ffffffffffffffffffffffffffffffffffffffff16815260200190815260200160002060003373ffffffffffffffffffffffffffffffffffffffff1673ffffffffffffffffffffffffffffffffffffffff1681526020019081526020016000205410156105a6576040517f08c379a000000000000000000000000000000000000000000000000000000000815260040161059d90610ea6565b60405180910390fd5b81600460008673ffffffffffffffffffffffffffffffffffffffff1673ffffffffffffffffffffffffffffffffffffffff16815260200190815260200160002060008282546105f59190610ef5565b9250508190555081600460008573ffffffffffffffffffffffffffffffffffffffff1673ffffffffffffffffffffffffffffffffffffffff168152602001908152602001600020600082825461064b9190610f29565b9250508190555081600560008673ffffffffffffffffffffffffffffffffffffffff1673ffffffffffffffffffffffffffffffffffffffff16815260200190815260200160002060003373ffffffffffffffffffffffffffffffffffffffff1673ffffffffffffffffffffffffffffffffffffffff16815260200190815260200160002060008282546106de9190610ef5565b925050819055508273ffffffffffffffffffffffffffffffffffffffff168473ffffffffffffffffffffffffffffffffffffffff167fddf252ad1be2c89b69c2b068fc378daa952ba7f163c4a11628f55a4df523b3ef846040516107429190610c10565b60405180910390a3600190509392505050565b600260009054906101000a900460ff1681565b60046020528060005260406000206000915090505481565b6001805461078d90610d51565b80601f01602080910402602001604051908101604052809291908181526020018280546107b990610d51565b80156108065780601f106107db57610100808354040283529160200191610806565b820191906000526020600020905b8154815290600101906020018083116107e957829003601f168201915b505050505081565b60008073ffffffffffffffffffffffffffffffffffffffff168373ffffffffffffffffffffffffffffffffffffffff160361087e576040517f08c379a000000000000000000000000000000000000000000000000000000000815260040161087590610dce565b60405180910390fd5b81600460003373ffffffffffffffffffffffffffffffffffffffff1673ffffffffffffffffffffffffffffffffffffffff168152602001908152602001600020541015610900576040517f08c379a00000000000000000000000000000000000000000000000000000000081526004016108f790610e3a565b60405180910390fd5b81600460003373ffffffffffffffffffffffffffffffffffffffff1673ffffffffffffffffffffffffffffffffffffffff168152602001908152602001600020600082825461094f9190610ef5565b9250508190555081600460008573ffffffffffffffffffffffffffffffffffffffff1673ffffffffffffffffffffffffffffffffffffffff16815260200190815260200160002060008282546109a59190610f29565b925050819055508273ffffffffffffffffffffffffffffffffffffffff163373ffffffffffffffffffffffffffffffffffffffff167fddf252ad1be2c89b69c2b068fc378daa952ba7f163c4a11628f55a4df523b3ef84604051610a099190610c10565b60405180910390a36001905092915050565b6005602052816000526040600020602052806000526040600020600091509150505481565b600081519050919050565b600082825260208201905092915050565b60005b83811015610a7a578082015181840152602081019050610a5f565b60008484015250505050565b6000601f19601f8301169050919050565b6000610aa282610a40565b610aac8185610a4b565b9350610abc818560208601610a5c565b610ac581610a86565b840191505092915050565b60006020820190508181036000830152610aea8184610a97565b905092915050565b600080fd5b600073ffffffffffffffffffffffffffffffffffffffff82169050919050565b6000610b2282610af7565b9050919050565b610b3281610b17565b8114610b3d57600080fd5b50565b600081359050610b4f81610b29565b92915050565b6000819050919050565b610b6881610b55565b8114610b7357600080fd5b50565b600081359050610b8581610b5f565b92915050565b60008060408385031215610ba257610ba1610af2565b5b6000610bb085828601610b40565b9250506020610bc185828601610b76565b9150509250929050565b60008115159050919050565b610be081610bcb565b82525050565b6000602082019050610bfb6000830184610bd7565b92915050565b610c0a81610b55565b82525050565b6000602082019050610c256000830184610c01565b92915050565b600080600060608486031215610c4457610c43610af2565b5b6000610c5286828701610b40565b9350506020610c6386828701610b40565b9250506040610c7486828701610b76565b9150509250925092565b600060ff82169050919050565b610c9481610c7e565b82525050565b6000602082019050610caf6000830184610c8b565b92915050565b600060208284031215610ccb57610cca610af2565b5b6000610cd984828501610b40565b91505092915050565b60008060408385031215610cf957610cf8610af2565b5b6000610d0785828601610b40565b9250506020610d1885828601610b40565b9150509250929050565b7f4e487b7100000000000000000000000000000000000000000000000000000000600052602260045260246000fd5b60006002820490506001821680610d6957607f821691505b602082108103610d7c57610d7b610d22565b5b50919050565b7f496e76616c696420616464726573730000000000000000000000000000000000600082015250565b6000610db8600f83610a4b565b9150610dc382610d82565b602082019050919050565b60006020820190508181036000830152610de781610dab565b9050919050565b7f496e73756666696369656e742062616c616e6365000000000000000000000000600082015250565b6000610e24601483610a4b565b9150610e2f82610dee565b602082019050919050565b60006020820190508181036000830152610e5381610e17565b9050919050565b7f416c6c6f77616e63652065786365656465640000000000000000000000000000600082015250565b6000610e90601283610a4b565b9150610e9b82610e5a565b602082019050919050565b60006020820190508181036000830152610ebf81610e83565b9050919050565b7f4e487b7100000000000000000000000000000000000000000000000000000000600052601160045260246000fd5b6000610f0082610b55565b9150610f0b83610b55565b9250828203905081811115610f2357610f22610ec6565b5b92915050565b6000610f3482610b55565b9150610f3f83610b55565b9250828201905080821115610f5757610f56610ec6565b5b9291505056fea2646970667358221220726c440e481a3f97c2ce18faf4aad1138e500b6255e6a95572220564750577fd64736f6c63430008140033a2646970667358221220664373c91da032c560f6879a3b9005a18207dd292ee14895c92cd9b3168792fa64736f6c63430008140033608060405234801561001057600080fd5b506105ae806100206000396000f3fe608060405234801561001057600080fd5b506004361061004c5760003560e01c80631aa3a008146100515780635f0bc6e51461005b57806361be861b14610065578063c3c5a54714610083575b600080fd5b6100596100b3565b005b6100636101db565b005b61006d610355565b60405161007a91906103e4565b60405180910390f35b61009d60048036038101906100989190610462565b6103a9565b6040516100aa91906103e4565b60405180910390f35b6000803373ffffffffffffffffffffffffffffffffffffffff1673ffffffffffffffffffffffffffffffffffffffff16815260200190815260200160002060009054906101000a900460ff161561013f576040517f08c379a0000000000000000000000000000000000000000000000000000000008152600401610136906104ec565b60405180910390fd5b60016000803373ffffffffffffffffffffffffffffffffffffffff1673ffffffffffffffffffffffffffffffffffffffff16815260200190815260200160002060006101000a81548160ff0219169083151502179055503373ffffffffffffffffffffffffffffffffffffffff167f54db7a5cb4735e1aac1f53db512d3390390bb6637bd30ad4bf9fc98667d9b9b960405160405180910390a2565b6000803373ffffffffffffffffffffffffffffffffffffffff1673ffffffffffffffffffffffffffffffffffffffff16815260200190815260200160002060009054906101000a900460ff16610266576040517f08c379a000000000000000000000000000000000000000000000000000000000815260040161025d90610558565b60405180910390fd5b6000600160003373ffffffffffffffffffffffffffffffffffffffff1673ffffffffffffffffffffffffffffffffffffffff16815260200190815260200160002060009054906101000a900460ff1690508015600160003373ffffffffffffffffffffffffffffffffffffffff1673ffffffffffffffffffffffffffffffffffffffff16815260200190815260200160002060006101000a81548160ff0219169083151502179055503373ffffffffffffffffffffffffffffffffffffffff167f8d15fde878cff665868ed7579eb5081db6508d4249df61dcdd7699a5301d987460405160405180910390a250565b6000600160003373ffffffffffffffffffffffffffffffffffffffff1673ffffffffffffffffffffffffffffffffffffffff16815260200190815260200160002060009054906101000a900460ff16905090565b60006020528060005260406000206000915054906101000a900460ff1681565b60008115159050919050565b6103de816103c9565b82525050565b60006020820190506103f960008301846103d5565b92915050565b600080fd5b600073ffffffffffffffffffffffffffffffffffffffff82169050919050565b600061042f82610404565b9050919050565b61043f81610424565b811461044a57600080fd5b50565b60008135905061045c81610436565b92915050565b600060208284031215610478576104776103ff565b5b60006104868482850161044d565b91505092915050565b600082825260208201905092915050565b7f5573657220616c72656164792072656769737465726564000000000000000000600082015250565b60006104d660178361048f565b91506104e1826104a0565b602082019050919050565b60006020820190508181036000830152610505816104c9565b9050919050565b7f55736572206e6f74207265676973746572656400000000000000000000000000600082015250565b600061054260138361048f565b915061054d8261050c565b602082019050919050565b6000602082019050818103600083015261057181610535565b905091905056fea26469706673582212209310a73615605665114da9d4df918c62097c6cdb22b4ac3bb1766b13a6837deb64736f6c63430008140033",
  "linkReferences": {},
  "deployedLinkReferences": {}
}