{
  "_format": "hh-sol-artifact-1",
  "contractName": "Manager",
  "sourceName": "contracts/Manager.sol",
  "abi": [
    {
      "inputs": [],
      "stateMutability": "nonpayable",
      "type": "constructor"
    },
    {
      "anonymous": false,
      "inputs": [
        {
          "indexed": true,
          "internalType": "address",
          "name": "creator",
          "type": "address"
        },
        {
          "indexed": true,
          "internalType": "address",
          "name": "tokenAddress",
          "type": "address"
        }
      ],
      "name": "TokenCreated",
      "type": "event"
    },
    {
      "anonymous": false,
      "inputs": [
        {
          "indexed": true,
          "internalType": "address",
          "name": "tokenAddress",
          "type": "address"
        },
        {
          "indexed": true,
          "internalType": "address",
          "name": "to",
          "type": "address"
        },
        {
          "indexed": false,
          "internalType": "uint256",
          "name": "amount",
          "type": "uint256"
        }
      ],
      "name": "TokensTransferred",
      "type": "event"
    },
    {
      "inputs": [
        {
          "internalType": "address",
          "name": "user",
          "type": "address"
        }
      ],
      "name": "claimInfo",
      "outputs": [
        {
          "internalType": "address",
          "name": "user",
          "type": "address"
        },
        {
          "internalType": "address",
          "name": "tokenAddress",
          "type": "address"
        },
        {
          "internalType": "string",
          "name": "cid",
          "type": "string"
        }
      ],
      "stateMutability": "view",
      "type": "function"
    },
    {
      "inputs": [
        {
          "internalType": "string",
          "name": "name",
          "type": "string"
        },
        {
          "internalType": "string",
          "name": "symbol",
          "type": "string"
        }
      ],
      "name": "createToken",
      "outputs": [
        {
          "internalType": "address",
          "name": "",
          "type": "address"
        }
      ],
      "stateMutability": "nonpayable",
      "type": "function"
    },
    {
      "inputs": [],
      "name": "getTokenPool",
      "outputs": [
        {
          "internalType": "address[]",
          "name": "",
          "type": "address[]"
        }
      ],
      "stateMutability": "view",
      "type": "function"
    },
    {
      "inputs": [],
      "name": "getTokens",
      "outputs": [],
      "stateMutability": "nonpayable",
      "type": "function"
    },
    {
      "inputs": [],
      "name": "owner",
      "outputs": [
        {
          "internalType": "address",
          "name": "",
          "type": "address"
        }
      ],
      "stateMutability": "view",
      "type": "function"
    },
    {
      "inputs": [
        {
          "internalType": "address",
          "name": "tokenAddress",
          "type": "address"
        },
        {
          "internalType": "address",
          "name": "to",
          "type": "address"
        },
        {
          "internalType": "uint256",
          "name": "amount",
          "type": "uint256"
        }
      ],
      "name": "transferTokens",
      "outputs": [],
      "stateMutability": "nonpayable",
      "type": "function"
    },
    {
      "inputs": [
        {
          "internalType": "string",
          "name": "_cid",
          "type": "string"
        },
        {
          "internalType": "address",
          "name": "_tokenAddress",
          "type": "address"
        }
      ],
      "name": "uploadImage",
      "outputs": [],
      "stateMutability": "nonpayable",
      "type": "function"
    }
  ],
  "bytecode": "0x60a060405234801561001057600080fd5b503373ffffffffffffffffffffffffffffffffffffffff1660808173ffffffffffffffffffffffffffffffffffffffff16815250506080516129416100676000396000818161018f015261046001526129416000f3fe60806040523480156200001157600080fd5b5060043610620000885760003560e01c8063a64b6e5f1162000063578063a64b6e5f1462000105578063aa6ca8081462000125578063d97830b11462000131578063ec55dd4214620001695762000088565b80632f2f2d56146200008d578063457f4cd914620000c35780638da5cb5b14620000e3575b600080fd5b620000ab6004803603810190620000a5919062000a2e565b6200018b565b604051620000ba919062000af8565b60405180910390f35b620000e16004803603810190620000db919062000b46565b62000326565b005b620000ed6200045e565b604051620000fc919062000af8565b60405180910390f35b6200012360048036038101906200011d919062000be7565b62000482565b005b6200012f62000578565b005b6200014f600480360381019062000149919062000c43565b62000720565b604051620001609392919062000cfe565b60405180910390f35b620001736200081a565b60405162000182919062000e10565b60405180910390f35b60007f000000000000000000000000000000000000000000000000000000000000000073ffffffffffffffffffffffffffffffffffffffff163373ffffffffffffffffffffffffffffffffffffffff16146200021e576040517f08c379a0000000000000000000000000000000000000000000000000000000008152600401620002159062000e84565b60405180910390fd5b60008383306040516200023190620008aa565b6200023f9392919062000ea6565b604051809103906000f0801580156200025c573d6000803e3d6000fd5b5090506001819080600181540180825580915050600190039060005260206000200160009091909190916101000a81548173ffffffffffffffffffffffffffffffffffffffff021916908373ffffffffffffffffffffffffffffffffffffffff1602179055508073ffffffffffffffffffffffffffffffffffffffff163373ffffffffffffffffffffffffffffffffffffffff167fd5f9bdf12adf29dab0248c349842c3822d53ae2bb4f36352f301630d018c813960405160405180910390a38091505092915050565b600060405180606001604052803373ffffffffffffffffffffffffffffffffffffffff1681526020018373ffffffffffffffffffffffffffffffffffffffff168152602001848152509050806000803373ffffffffffffffffffffffffffffffffffffffff1673ffffffffffffffffffffffffffffffffffffffff16815260200190815260200160002060008201518160000160006101000a81548173ffffffffffffffffffffffffffffffffffffffff021916908373ffffffffffffffffffffffffffffffffffffffff16021790555060208201518160010160006101000a81548173ffffffffffffffffffffffffffffffffffffffff021916908373ffffffffffffffffffffffffffffffffffffffff160217905550604082015181600201908162000455919062001127565b50905050505050565b7f000000000000000000000000000000000000000000000000000000000000000081565b60008390508073ffffffffffffffffffffffffffffffffffffffff1663a9059cbb84846040518363ffffffff1660e01b8152600401620004c49291906200121f565b6020604051808303816000875af1158015620004e4573d6000803e3d6000fd5b505050506040513d601f19601f820116820180604052508101906200050a919062001289565b508273ffffffffffffffffffffffffffffffffffffffff168473ffffffffffffffffffffffffffffffffffffffff167f1b89874203ff7f0bba87c969ada3f32fda22ed38a6706d35199d21280c7811b1846040516200056a9190620012bb565b60405180910390a350505050565b60008060003373ffffffffffffffffffffffffffffffffffffffff1673ffffffffffffffffffffffffffffffffffffffff1681526020019081526020016000206040518060600160405290816000820160009054906101000a900473ffffffffffffffffffffffffffffffffffffffff1673ffffffffffffffffffffffffffffffffffffffff1673ffffffffffffffffffffffffffffffffffffffff1681526020016001820160009054906101000a900473ffffffffffffffffffffffffffffffffffffffff1673ffffffffffffffffffffffffffffffffffffffff1673ffffffffffffffffffffffffffffffffffffffff168152602001600282018054620006819062000f20565b80601f0160208091040260200160405190810160405280929190818152602001828054620006af9062000f20565b8015620007005780601f10620006d45761010080835404028352916020019162000700565b820191906000526020600020905b815481529060010190602001808311620006e257829003601f168201915b50505050508152505090506200071d816020015133600a62000482565b50565b60006020528060005260406000206000915090508060000160009054906101000a900473ffffffffffffffffffffffffffffffffffffffff16908060010160009054906101000a900473ffffffffffffffffffffffffffffffffffffffff1690806002018054620007919062000f20565b80601f0160208091040260200160405190810160405280929190818152602001828054620007bf9062000f20565b8015620008105780601f10620007e45761010080835404028352916020019162000810565b820191906000526020600020905b815481529060010190602001808311620007f257829003601f168201915b5050505050905083565b60606001805480602002602001604051908101604052809291908181526020018280548015620008a057602002820191906000526020600020905b8160009054906101000a900473ffffffffffffffffffffffffffffffffffffffff1673ffffffffffffffffffffffffffffffffffffffff168152602001906001019080831162000855575b5050505050905090565b61163380620012d983390190565b6000604051905090565b600080fd5b600080fd5b600080fd5b600080fd5b6000601f19601f8301169050919050565b7f4e487b7100000000000000000000000000000000000000000000000000000000600052604160045260246000fd5b6200092182620008d6565b810181811067ffffffffffffffff82111715620009435762000942620008e7565b5b80604052505050565b600062000958620008b8565b905062000966828262000916565b919050565b600067ffffffffffffffff821115620009895762000988620008e7565b5b6200099482620008d6565b9050602081019050919050565b82818337600083830152505050565b6000620009c7620009c1846200096b565b6200094c565b905082815260208101848484011115620009e657620009e5620008d1565b5b620009f3848285620009a1565b509392505050565b600082601f83011262000a135762000a12620008cc565b5b813562000a25848260208601620009b0565b91505092915050565b6000806040838503121562000a485762000a47620008c2565b5b600083013567ffffffffffffffff81111562000a695762000a68620008c7565b5b62000a7785828601620009fb565b925050602083013567ffffffffffffffff81111562000a9b5762000a9a620008c7565b5b62000aa985828601620009fb565b9150509250929050565b600073ffffffffffffffffffffffffffffffffffffffff82169050919050565b600062000ae08262000ab3565b9050919050565b62000af28162000ad3565b82525050565b600060208201905062000b0f600083018462000ae7565b92915050565b62000b208162000ad3565b811462000b2c57600080fd5b50565b60008135905062000b408162000b15565b92915050565b6000806040838503121562000b605762000b5f620008c2565b5b600083013567ffffffffffffffff81111562000b815762000b80620008c7565b5b62000b8f85828601620009fb565b925050602062000ba28582860162000b2f565b9150509250929050565b6000819050919050565b62000bc18162000bac565b811462000bcd57600080fd5b50565b60008135905062000be18162000bb6565b92915050565b60008060006060848603121562000c035762000c02620008c2565b5b600062000c138682870162000b2f565b935050602062000c268682870162000b2f565b925050604062000c398682870162000bd0565b9150509250925092565b60006020828403121562000c5c5762000c5b620008c2565b5b600062000c6c8482850162000b2f565b91505092915050565b600081519050919050565b600082825260208201905092915050565b60005b8381101562000cb157808201518184015260208101905062000c94565b60008484015250505050565b600062000cca8262000c75565b62000cd6818562000c80565b935062000ce881856020860162000c91565b62000cf381620008d6565b840191505092915050565b600060608201905062000d15600083018662000ae7565b62000d24602083018562000ae7565b818103604083015262000d38818462000cbd565b9050949350505050565b600081519050919050565b600082825260208201905092915050565b6000819050602082019050919050565b62000d798162000ad3565b82525050565b600062000d8d838362000d6e565b60208301905092915050565b6000602082019050919050565b600062000db38262000d42565b62000dbf818562000d4d565b935062000dcc8362000d5e565b8060005b8381101562000e0357815162000de7888262000d7f565b975062000df48362000d99565b92505060018101905062000dd0565b5085935050505092915050565b6000602082019050818103600083015262000e2c818462000da6565b905092915050565b7f556e617574686f72697a65640000000000000000000000000000000000000000600082015250565b600062000e6c600c8362000c80565b915062000e798262000e34565b602082019050919050565b6000602082019050818103600083015262000e9f8162000e5d565b9050919050565b6000606082019050818103600083015262000ec2818662000cbd565b9050818103602083015262000ed8818562000cbd565b905062000ee9604083018462000ae7565b949350505050565b7f4e487b7100000000000000000000000000000000000000000000000000000000600052602260045260246000fd5b6000600282049050600182168062000f3957607f821691505b60208210810362000f4f5762000f4e62000ef1565b5b50919050565b60008190508160005260206000209050919050565b60006020601f8301049050919050565b600082821b905092915050565b60006008830262000fb97fffffffffffffffffffffffffffffffffffffffffffffffffffffffffffffffff8262000f7a565b62000fc5868362000f7a565b95508019841693508086168417925050509392505050565b6000819050919050565b6000620010086200100262000ffc8462000bac565b62000fdd565b62000bac565b9050919050565b6000819050919050565b620010248362000fe7565b6200103c62001033826200100f565b84845462000f87565b825550505050565b600090565b6200105362001044565b6200106081848462001019565b505050565b5b8181101562001088576200107c60008262001049565b60018101905062001066565b5050565b601f821115620010d757620010a18162000f55565b620010ac8462000f6a565b81016020851015620010bc578190505b620010d4620010cb8562000f6a565b83018262001065565b50505b505050565b600082821c905092915050565b6000620010fc60001984600802620010dc565b1980831691505092915050565b6000620011178383620010e9565b9150826002028217905092915050565b620011328262000c75565b67ffffffffffffffff8111156200114e576200114d620008e7565b5b6200115a825462000f20565b620011678282856200108c565b600060209050601f8311600181146200119f57600084156200118a578287015190505b62001196858262001109565b86555062001206565b601f198416620011af8662000f55565b60005b82811015620011d957848901518255600182019150602085019450602081019050620011b2565b86831015620011f95784890151620011f5601f891682620010e9565b8355505b6001600288020188555050505b505050505050565b620012198162000bac565b82525050565b600060408201905062001236600083018562000ae7565b6200124560208301846200120e565b9392505050565b60008115159050919050565b62001263816200124c565b81146200126f57600080fd5b50565b600081519050620012838162001258565b92915050565b600060208284031215620012a257620012a1620008c2565b5b6000620012b28482850162001272565b91505092915050565b6000602082019050620012d260008301846200120e565b9291505056fe60806040526012600260006101000a81548160ff021916908360ff1602179055506103e86003553480156200003357600080fd5b5060405162001633380380620016338339818101604052810190620000599190620002c4565b82600090816200006a9190620005a9565b5081600190816200007c9190620005a9565b50600354600460008373ffffffffffffffffffffffffffffffffffffffff1673ffffffffffffffffffffffffffffffffffffffff1681526020019081526020016000208190555050505062000690565b6000604051905090565b600080fd5b600080fd5b600080fd5b600080fd5b6000601f19601f8301169050919050565b7f4e487b7100000000000000000000000000000000000000000000000000000000600052604160045260246000fd5b6200013582620000ea565b810181811067ffffffffffffffff82111715620001575762000156620000fb565b5b80604052505050565b60006200016c620000cc565b90506200017a82826200012a565b919050565b600067ffffffffffffffff8211156200019d576200019c620000fb565b5b620001a882620000ea565b9050602081019050919050565b60005b83811015620001d5578082015181840152602081019050620001b8565b60008484015250505050565b6000620001f8620001f2846200017f565b62000160565b905082815260208101848484011115620002175762000216620000e5565b5b62000224848285620001b5565b509392505050565b600082601f830112620002445762000243620000e0565b5b815162000256848260208601620001e1565b91505092915050565b600073ffffffffffffffffffffffffffffffffffffffff82169050919050565b60006200028c826200025f565b9050919050565b6200029e816200027f565b8114620002aa57600080fd5b50565b600081519050620002be8162000293565b92915050565b600080600060608486031215620002e057620002df620000d6565b5b600084015167ffffffffffffffff811115620003015762000300620000db565b5b6200030f868287016200022c565b935050602084015167ffffffffffffffff811115620003335762000332620000db565b5b62000341868287016200022c565b92505060406200035486828701620002ad565b9150509250925092565b600081519050919050565b7f4e487b7100000000000000000000000000000000000000000000000000000000600052602260045260246000fd5b60006002820490506001821680620003b157607f821691505b602082108103620003c757620003c662000369565b5b50919050565b60008190508160005260206000209050919050565b60006020601f8301049050919050565b600082821b905092915050565b600060088302620004317fffffffffffffffffffffffffffffffffffffffffffffffffffffffffffffffff82620003f2565b6200043d8683620003f2565b95508019841693508086168417925050509392505050565b6000819050919050565b6000819050919050565b60006200048a620004846200047e8462000455565b6200045f565b62000455565b9050919050565b6000819050919050565b620004a68362000469565b620004be620004b58262000491565b848454620003ff565b825550505050565b600090565b620004d5620004c6565b620004e28184846200049b565b505050565b5b818110156200050a57620004fe600082620004cb565b600181019050620004e8565b5050565b601f82111562000559576200052381620003cd565b6200052e84620003e2565b810160208510156200053e578190505b620005566200054d85620003e2565b830182620004e7565b50505b505050565b600082821c905092915050565b60006200057e600019846008026200055e565b1980831691505092915050565b60006200059983836200056b565b9150826002028217905092915050565b620005b4826200035e565b67ffffffffffffffff811115620005d057620005cf620000fb565b5b620005dc825462000398565b620005e98282856200050e565b600060209050601f8311600181146200062157600084156200060c578287015190505b6200061885826200058b565b86555062000688565b601f1984166200063186620003cd565b60005b828110156200065b5784890151825560018201915060208501945060208101905062000634565b868310156200067b578489015162000677601f8916826200056b565b8355505b6001600288020188555050505b505050505050565b610f9380620006a06000396000f3fe608060405234801561001057600080fd5b50600436106100935760003560e01c8063313ce56711610066578063313ce5671461013457806370a082311461015257806395d89b4114610182578063a9059cbb146101a0578063dd62ed3e146101d057610093565b806306fdde0314610098578063095ea7b3146100b657806318160ddd146100e657806323b872dd14610104575b600080fd5b6100a0610200565b6040516100ad9190610ad0565b60405180910390f35b6100d060048036038101906100cb9190610b8b565b61028e565b6040516100dd9190610be6565b60405180910390f35b6100ee610380565b6040516100fb9190610c10565b60405180910390f35b61011e60048036038101906101199190610c2b565b610386565b60405161012b9190610be6565b60405180910390f35b61013c610755565b6040516101499190610c9a565b60405180910390f35b61016c60048036038101906101679190610cb5565b610768565b6040516101799190610c10565b60405180910390f35b61018a610780565b6040516101979190610ad0565b60405180910390f35b6101ba60048036038101906101b59190610b8b565b61080e565b6040516101c79190610be6565b60405180910390f35b6101ea60048036038101906101e59190610ce2565b610a1b565b6040516101f79190610c10565b60405180910390f35b6000805461020d90610d51565b80601f016020809104026020016040519081016040528092919081815260200182805461023990610d51565b80156102865780601f1061025b57610100808354040283529160200191610286565b820191906000526020600020905b81548152906001019060200180831161026957829003601f168201915b505050505081565b600081600560003373ffffffffffffffffffffffffffffffffffffffff1673ffffffffffffffffffffffffffffffffffffffff16815260200190815260200160002060008573ffffffffffffffffffffffffffffffffffffffff1673ffffffffffffffffffffffffffffffffffffffff168152602001908152602001600020819055508273ffffffffffffffffffffffffffffffffffffffff163373ffffffffffffffffffffffffffffffffffffffff167f8c5be1e5ebec7d5bd14f71427d1e84f3dd0314c0f7b2291e5b200ac8c7c3b9258460405161036e9190610c10565b60405180910390a36001905092915050565b60035481565b60008073ffffffffffffffffffffffffffffffffffffffff168473ffffffffffffffffffffffffffffffffffffffff16036103f6576040517f08c379a00000000000000000000000000000000000000000000000000000000081526004016103ed90610dce565b60405180910390fd5b600073ffffffffffffffffffffffffffffffffffffffff168373ffffffffffffffffffffffffffffffffffffffff1603610465576040517f08c379a000000000000000000000000000000000000000000000000000000000815260040161045c90610dce565b60405180910390fd5b81600460008673ffffffffffffffffffffffffffffffffffffffff1673ffffffffffffffffffffffffffffffffffffffff1681526020019081526020016000205410156104e7576040517f08c379a00000000000000000000000000000000000000000000000000000000081526004016104de90610e3a565b60405180910390fd5b81600560008673ffffffffffffffffffffffffffffffffffffffff1673ffffffffffffffffffffffffffffffffffffffff16815260200190815260200160002060003373ffffffffffffffffffffffffffffffffffffffff1673ffffffffffffffffffffffffffffffffffffffff1681526020019081526020016000205410156105a6576040517f08c379a000000000000000000000000000000000000000000000000000000000815260040161059d90610ea6565b60405180910390fd5b81600460008673ffffffffffffffffffffffffffffffffffffffff1673ffffffffffffffffffffffffffffffffffffffff16815260200190815260200160002060008282546105f59190610ef5565b9250508190555081600460008573ffffffffffffffffffffffffffffffffffffffff1673ffffffffffffffffffffffffffffffffffffffff168152602001908152602001600020600082825461064b9190610f29565b9250508190555081600560008673ffffffffffffffffffffffffffffffffffffffff1673ffffffffffffffffffffffffffffffffffffffff16815260200190815260200160002060003373ffffffffffffffffffffffffffffffffffffffff1673ffffffffffffffffffffffffffffffffffffffff16815260200190815260200160002060008282546106de9190610ef5565b925050819055508273ffffffffffffffffffffffffffffffffffffffff168473ffffffffffffffffffffffffffffffffffffffff167fddf252ad1be2c89b69c2b068fc378daa952ba7f163c4a11628f55a4df523b3ef846040516107429190610c10565b60405180910390a3600190509392505050565b600260009054906101000a900460ff1681565b60046020528060005260406000206000915090505481565b6001805461078d90610d51565b80601f01602080910402602001604051908101604052809291908181526020018280546107b990610d51565b80156108065780601f106107db57610100808354040283529160200191610806565b820191906000526020600020905b8154815290600101906020018083116107e957829003601f168201915b505050505081565b60008073ffffffffffffffffffffffffffffffffffffffff168373ffffffffffffffffffffffffffffffffffffffff160361087e576040517f08c379a000000000000000000000000000000000000000000000000000000000815260040161087590610dce565b60405180910390fd5b81600460003373ffffffffffffffffffffffffffffffffffffffff1673ffffffffffffffffffffffffffffffffffffffff168152602001908152602001600020541015610900576040517f08c379a00000000000000000000000000000000000000000000000000000000081526004016108f790610e3a565b60405180910390fd5b81600460003373ffffffffffffffffffffffffffffffffffffffff1673ffffffffffffffffffffffffffffffffffffffff168152602001908152602001600020600082825461094f9190610ef5565b9250508190555081600460008573ffffffffffffffffffffffffffffffffffffffff1673ffffffffffffffffffffffffffffffffffffffff16815260200190815260200160002060008282546109a59190610f29565b925050819055508273ffffffffffffffffffffffffffffffffffffffff163373ffffffffffffffffffffffffffffffffffffffff167fddf252ad1be2c89b69c2b068fc378daa952ba7f163c4a11628f55a4df523b3ef84604051610a099190610c10565b60405180910390a36001905092915050565b6005602052816000526040600020602052806000526040600020600091509150505481565b600081519050919050565b600082825260208201905092915050565b60005b83811015610a7a578082015181840152602081019050610a5f565b60008484015250505050565b6000601f19601f8301169050919050565b6000610aa282610a40565b610aac8185610a4b565b9350610abc818560208601610a5c565b610ac581610a86565b840191505092915050565b60006020820190508181036000830152610aea8184610a97565b905092915050565b600080fd5b600073ffffffffffffffffffffffffffffffffffffffff82169050919050565b6000610b2282610af7565b9050919050565b610b3281610b17565b8114610b3d57600080fd5b50565b600081359050610b4f81610b29565b92915050565b6000819050919050565b610b6881610b55565b8114610b7357600080fd5b50565b600081359050610b8581610b5f565b92915050565b60008060408385031215610ba257610ba1610af2565b5b6000610bb085828601610b40565b9250506020610bc185828601610b76565b9150509250929050565b60008115159050919050565b610be081610bcb565b82525050565b6000602082019050610bfb6000830184610bd7565b92915050565b610c0a81610b55565b82525050565b6000602082019050610c256000830184610c01565b92915050565b600080600060608486031215610c4457610c43610af2565b5b6000610c5286828701610b40565b9350506020610c6386828701610b40565b9250506040610c7486828701610b76565b9150509250925092565b600060ff82169050919050565b610c9481610c7e565b82525050565b6000602082019050610caf6000830184610c8b565b92915050565b600060208284031215610ccb57610cca610af2565b5b6000610cd984828501610b40565b91505092915050565b60008060408385031215610cf957610cf8610af2565b5b6000610d0785828601610b40565b9250506020610d1885828601610b40565b9150509250929050565b7f4e487b7100000000000000000000000000000000000000000000000000000000600052602260045260246000fd5b60006002820490506001821680610d6957607f821691505b602082108103610d7c57610d7b610d22565b5b50919050565b7f496e76616c696420616464726573730000000000000000000000000000000000600082015250565b6000610db8600f83610a4b565b9150610dc382610d82565b602082019050919050565b60006020820190508181036000830152610de781610dab565b9050919050565b7f496e73756666696369656e742062616c616e6365000000000000000000000000600082015250565b6000610e24601483610a4b565b9150610e2f82610dee565b602082019050919050565b60006020820190508181036000830152610e5381610e17565b9050919050565b7f416c6c6f77616e63652065786365656465640000000000000000000000000000600082015250565b6000610e90601283610a4b565b9150610e9b82610e5a565b602082019050919050565b60006020820190508181036000830152610ebf81610e83565b9050919050565b7f4e487b7100000000000000000000000000000000000000000000000000000000600052601160045260246000fd5b6000610f0082610b55565b9150610f0b83610b55565b9250828203905081811115610f2357610f22610ec6565b5b92915050565b6000610f3482610b55565b9150610f3f83610b55565b9250828201905080821115610f5757610f56610ec6565b5b9291505056fea2646970667358221220354450156ba9e5ace53c67142257783477ffedbc74e05097535da25a1629709264736f6c63430008140033a2646970667358221220bd2f06f8b3f1253755d76d554ff4ec6e3acd13a64d0a4f0139f1b4bbadfae27164736f6c63430008140033",
  "linkReferences": {},
  "deployedLinkReferences": {}
}