{
  "_format": "hh-sol-artifact-1",
  "contractName": "Swapper",
  "sourceName": "contracts/Swapper.sol",
  "abi": [
    {
      "anonymous": false,
      "inputs": [
        {
          "indexed": true,
          "internalType": "address",
          "name": "user",
          "type": "address"
        },
        {
          "indexed": true,
          "internalType": "address",
          "name": "tokenAddress",
          "type": "address"
        },
        {
          "indexed": false,
          "internalType": "uint256",
          "name": "tokensAmount",
          "type": "uint256"
        },
        {
          "indexed": false,
          "internalType": "uint256",
          "name": "etherAmount",
          "type": "uint256"
        }
      ],
      "name": "TokensSwapped",
      "type": "event"
    },
    {
      "stateMutability": "payable",
      "type": "fallback"
    },
    {
      "inputs": [
        {
          "internalType": "address",
          "name": "tokenAddress",
          "type": "address"
        },
        {
          "internalType": "uint256",
          "name": "price",
          "type": "uint256"
        }
      ],
      "name": "setTokenPrice",
      "outputs": [],
      "stateMutability": "nonpayable",
      "type": "function"
    },
    {
      "inputs": [
        {
          "internalType": "address",
          "name": "tokenAddress",
          "type": "address"
        },
        {
          "internalType": "uint256",
          "name": "tokensAmount",
          "type": "uint256"
        }
      ],
      "name": "swapTokensForEther",
      "outputs": [],
      "stateMutability": "nonpayable",
      "type": "function"
    },
    {
      "inputs": [
        {
          "internalType": "address",
          "name": "",
          "type": "address"
        }
      ],
      "name": "tokenPrices",
      "outputs": [
        {
          "internalType": "uint256",
          "name": "",
          "type": "uint256"
        }
      ],
      "stateMutability": "view",
      "type": "function"
    },
    {
      "inputs": [
        {
          "internalType": "address",
          "name": "",
          "type": "address"
        }
      ],
      "name": "userBalances",
      "outputs": [
        {
          "internalType": "uint256",
          "name": "",
          "type": "uint256"
        }
      ],
      "stateMutability": "view",
      "type": "function"
    },
    {
      "inputs": [],
      "name": "withdrawEther",
      "outputs": [],
      "stateMutability": "nonpayable",
      "type": "function"
    },
    {
      "stateMutability": "payable",
      "type": "receive"
    }
  ],
  "bytecode": "0x608060405234801561001057600080fd5b50610cc6806100206000396000f3fe60806040526004361061004d5760003560e01c80625f5f9014610056578063204120bc1461007f57806326224c64146100bc578063431f63c9146100f95780637362377b1461012257610054565b3661005457005b005b34801561006257600080fd5b5061007d6004803603810190610078919061076d565b610139565b005b34801561008b57600080fd5b506100a660048036038101906100a191906107ad565b610521565b6040516100b391906107e9565b60405180910390f35b3480156100c857600080fd5b506100e360048036038101906100de91906107ad565b610539565b6040516100f091906107e9565b60405180910390f35b34801561010557600080fd5b50610120600480360381019061011b919061076d565b610551565b005b34801561012e57600080fd5b506101376105ab565b005b60008060008473ffffffffffffffffffffffffffffffffffffffff1673ffffffffffffffffffffffffffffffffffffffff16815260200190815260200160002054116101ba576040517f08c379a00000000000000000000000000000000000000000000000000000000081526004016101b190610861565b60405180910390fd5b6000829050818173ffffffffffffffffffffffffffffffffffffffff166370a08231336040518263ffffffff1660e01b81526004016101f99190610890565b602060405180830381865afa158015610216573d6000803e3d6000fd5b505050506040513d601f19601f8201168201806040525081019061023a91906108c0565b101561027b576040517f08c379a000000000000000000000000000000000000000000000000000000000815260040161027290610939565b60405180910390fd5b818173ffffffffffffffffffffffffffffffffffffffff1663dd62ed3e33306040518363ffffffff1660e01b81526004016102b7929190610959565b602060405180830381865afa1580156102d4573d6000803e3d6000fd5b505050506040513d601f19601f820116820180604052508101906102f891906108c0565b1015610339576040517f08c379a0000000000000000000000000000000000000000000000000000000008152600401610330906109ce565b60405180910390fd5b6000670de0b6b3a76400006000808673ffffffffffffffffffffffffffffffffffffffff1673ffffffffffffffffffffffffffffffffffffffff168152602001908152602001600020548461038e9190610a1d565b6103989190610a8e565b9050600081116103dd576040517f08c379a00000000000000000000000000000000000000000000000000000000081526004016103d490610b0b565b60405180910390fd5b8173ffffffffffffffffffffffffffffffffffffffff166323b872dd3330866040518463ffffffff1660e01b815260040161041a93929190610b2b565b6020604051808303816000875af1158015610439573d6000803e3d6000fd5b505050506040513d601f19601f8201168201806040525081019061045d9190610b9a565b5080600160003373ffffffffffffffffffffffffffffffffffffffff1673ffffffffffffffffffffffffffffffffffffffff16815260200190815260200160002060008282546104ad9190610bc7565b925050819055508373ffffffffffffffffffffffffffffffffffffffff163373ffffffffffffffffffffffffffffffffffffffff167f25f1d03755df23c30e25db2dbd3891e31ce084bdfbfc46f9fe5e446ee5f9b2d48584604051610513929190610bfb565b60405180910390a350505050565b60006020528060005260406000206000915090505481565b60016020528060005260406000206000915090505481565b670de0b6b3a7640000816105659190610a1d565b6000808473ffffffffffffffffffffffffffffffffffffffff1673ffffffffffffffffffffffffffffffffffffffff168152602001908152602001600020819055505050565b6000600160003373ffffffffffffffffffffffffffffffffffffffff1673ffffffffffffffffffffffffffffffffffffffff16815260200190815260200160002054905060008111610632576040517f08c379a000000000000000000000000000000000000000000000000000000000815260040161062990610c70565b60405180910390fd5b6000600160003373ffffffffffffffffffffffffffffffffffffffff1673ffffffffffffffffffffffffffffffffffffffff168152602001908152602001600020819055503373ffffffffffffffffffffffffffffffffffffffff166108fc670de0b6b3a7640000836106a59190610a1d565b9081150290604051600060405180830381858888f193505050501580156106d0573d6000803e3d6000fd5b5050565b600080fd5b600073ffffffffffffffffffffffffffffffffffffffff82169050919050565b6000610704826106d9565b9050919050565b610714816106f9565b811461071f57600080fd5b50565b6000813590506107318161070b565b92915050565b6000819050919050565b61074a81610737565b811461075557600080fd5b50565b60008135905061076781610741565b92915050565b60008060408385031215610784576107836106d4565b5b600061079285828601610722565b92505060206107a385828601610758565b9150509250929050565b6000602082840312156107c3576107c26106d4565b5b60006107d184828501610722565b91505092915050565b6107e381610737565b82525050565b60006020820190506107fe60008301846107da565b92915050565b600082825260208201905092915050565b7f546f6b656e206e6f7420737570706f7274656400000000000000000000000000600082015250565b600061084b601383610804565b915061085682610815565b602082019050919050565b6000602082019050818103600083015261087a8161083e565b9050919050565b61088a816106f9565b82525050565b60006020820190506108a56000830184610881565b92915050565b6000815190506108ba81610741565b92915050565b6000602082840312156108d6576108d56106d4565b5b60006108e4848285016108ab565b91505092915050565b7f496e73756666696369656e7420746f6b656e7300000000000000000000000000600082015250565b6000610923601383610804565b915061092e826108ed565b602082019050919050565b6000602082019050818103600083015261095281610916565b9050919050565b600060408201905061096e6000830185610881565b61097b6020830184610881565b9392505050565b7f416c6c6f77616e636520746f6f206c6f77000000000000000000000000000000600082015250565b60006109b8601183610804565b91506109c382610982565b602082019050919050565b600060208201905081810360008301526109e7816109ab565b9050919050565b7f4e487b7100000000000000000000000000000000000000000000000000000000600052601160045260246000fd5b6000610a2882610737565b9150610a3383610737565b9250828202610a4181610737565b91508282048414831517610a5857610a576109ee565b5b5092915050565b7f4e487b7100000000000000000000000000000000000000000000000000000000600052601260045260246000fd5b6000610a9982610737565b9150610aa483610737565b925082610ab457610ab3610a5f565b5b828204905092915050565b7f496e76616c69642065786368616e676520726174650000000000000000000000600082015250565b6000610af5601583610804565b9150610b0082610abf565b602082019050919050565b60006020820190508181036000830152610b2481610ae8565b9050919050565b6000606082019050610b406000830186610881565b610b4d6020830185610881565b610b5a60408301846107da565b949350505050565b60008115159050919050565b610b7781610b62565b8114610b8257600080fd5b50565b600081519050610b9481610b6e565b92915050565b600060208284031215610bb057610baf6106d4565b5b6000610bbe84828501610b85565b91505092915050565b6000610bd282610737565b9150610bdd83610737565b9250828201905080821115610bf557610bf46109ee565b5b92915050565b6000604082019050610c1060008301856107da565b610c1d60208301846107da565b9392505050565b7f4e6f20657468657220746f207769746864726177000000000000000000000000600082015250565b6000610c5a601483610804565b9150610c6582610c24565b602082019050919050565b60006020820190508181036000830152610c8981610c4d565b905091905056fea2646970667358221220fe24c302b2d57d5b07ff63ac11fc435cf512be693f68456c531853ef3c76d6b664736f6c63430008140033",
  "linkReferences": {},
  "deployedLinkReferences": {}
}